{"contracts/BasicDutchAuction.sol":{"BasicDutchAuction":{"abi":[{"inputs":[{"internalType":"uint256","name":"_reservePrice","type":"uint256"},{"internalType":"uint256","name":"_numBlocksAuctionOpen","type":"uint256"},{"internalType":"uint256","name":"_offerPriceDecrement","type":"uint256"}],"stateMutability":"nonpayable","type":"constructor"},{"inputs":[],"name":"bid","outputs":[{"internalType":"address","name":"","type":"address"}],"stateMutability":"payable","type":"function"},{"inputs":[],"name":"getCurrentPrice","outputs":[{"internalType":"uint256","name":"","type":"uint256"}],"stateMutability":"view","type":"function"},{"inputs":[],"name":"initialPrice","outputs":[{"internalType":"uint256","name":"","type":"uint256"}],"stateMutability":"view","type":"function"},{"inputs":[],"name":"numBlocksAuctionOpen","outputs":[{"internalType":"uint256","name":"","type":"uint256"}],"stateMutability":"view","type":"function"},{"inputs":[],"name":"offerPriceDecrement","outputs":[{"internalType":"uint256","name":"","type":"uint256"}],"stateMutability":"view","type":"function"},{"inputs":[],"name":"owner","outputs":[{"internalType":"address payable","name":"","type":"address"}],"stateMutability":"view","type":"function"},{"inputs":[],"name":"reservePrice","outputs":[{"internalType":"uint256","name":"","type":"uint256"}],"stateMutability":"view","type":"function"},{"inputs":[],"name":"startBlock","outputs":[{"internalType":"uint256","name":"","type":"uint256"}],"stateMutability":"view","type":"function"},{"inputs":[],"name":"winner","outputs":[{"internalType":"address","name":"","type":"address"}],"stateMutability":"view","type":"function"}],"evm":{"bytecode":{"linkReferences":{},"object":"6101206040523480156200001257600080fd5b5060405162000eee38038062000eee8339818101604052810190620000389190620001c4565b620000546767622d8ec539705260c01b6200018160201b60201c565b6200007067de78ebe698a9f29960c01b6200018160201b60201c565b3373ffffffffffffffffffffffffffffffffffffffff1660808173ffffffffffffffffffffffffffffffffffffffff1681525050620000c067327a71a263007ed860c01b6200018160201b60201c565b8260a08181525050620000e4670336ad703bbbde7460c01b6200018160201b60201c565b8160c0818152505062000108678b845912d49e5bd460c01b6200018160201b60201c565b8060e081815250506200012c673f120028c7b8659560c01b6200018160201b60201c565b43610100818152505062000151677506bf2ae79afab160c01b6200018160201b60201c565b60e05160c0516200016391906200024f565b60a0516200017291906200029a565b600081905550505050620002d5565b50565b600080fd5b6000819050919050565b6200019e8162000189565b8114620001aa57600080fd5b50565b600081519050620001be8162000193565b92915050565b600080600060608486031215620001e057620001df62000184565b5b6000620001f086828701620001ad565b93505060206200020386828701620001ad565b92505060406200021686828701620001ad565b9150509250925092565b7f4e487b7100000000000000000000000000000000000000000000000000000000600052601160045260246000fd5b60006200025c8262000189565b9150620002698362000189565b9250828202620002798162000189565b9150828204841483151762000293576200029262000220565b5b5092915050565b6000620002a78262000189565b9150620002b48362000189565b9250828201905080821115620002cf57620002ce62000220565b5b92915050565b60805160a05160c05160e05161010051610ba36200034b600039600081816103240152818161062c0152610722015260008181610674015261084001526000818161038e01528181610608015261077801526000818161069801526107db01526000818161054901526106500152610ba36000f3fe6080604052600436106100865760003560e01c80638da5cb5b116100595780638da5cb5b1461012a578063d3642a8814610155578063db2e1eed14610180578063dfbf53ae146101ab578063eb91d37e146101d657610086565b80631998aeef1461008b5780631d0806ae146100a95780633103ea62146100d457806348cd4cb1146100ff575b600080fd5b610093610201565b6040516100a091906108c2565b60405180910390f35b3480156100b557600080fd5b506100be610600565b6040516100cb91906108f6565b60405180910390f35b3480156100e057600080fd5b506100e9610606565b6040516100f691906108f6565b60405180910390f35b34801561010b57600080fd5b5061011461062a565b60405161012191906108f6565b60405180910390f35b34801561013657600080fd5b5061013f61064e565b60405161014c9190610932565b60405180910390f35b34801561016157600080fd5b5061016a610672565b60405161017791906108f6565b60405180910390f35b34801561018c57600080fd5b50610195610696565b6040516101a291906108f6565b60405180910390f35b3480156101b757600080fd5b506101c06106ba565b6040516101cd91906108c2565b60405180910390f35b3480156101e257600080fd5b506101eb6106e0565b6040516101f891906108f6565b60405180910390f35b600061021767d1ba168df17bd84060c01b61087e565b61022b67f52235b7b94cf2ef60c01b61087e565b61023f679000a3a29baa730960c01b61087e565b610253675a304f1b6629e76260c01b61087e565b600073ffffffffffffffffffffffffffffffffffffffff16600160009054906101000a900473ffffffffffffffffffffffffffffffffffffffff1673ffffffffffffffffffffffffffffffffffffffff16146102e4576040517f08c379a00000000000000000000000000000000000000000000000000000000081526004016102db906109aa565b60405180910390fd5b6102f8679ebebaa7d23e587b60c01b61087e565b61030c67dcfa30be90f7258960c01b61087e565b610320675a03dfc193e1bc8760c01b61087e565b60007f00000000000000000000000000000000000000000000000000000000000000004361034e91906109f9565b9050610364675055a7d6fe81eeb160c01b61087e565b610378674307fede985151fc60c01b61087e565b61038c677953d02f03de68f960c01b61087e565b7f00000000000000000000000000000000000000000000000000000000000000008111156103ef576040517f08c379a00000000000000000000000000000000000000000000000000000000081526004016103e690610a79565b60405180910390fd5b61040367f94e732280957ba160c01b61087e565b6104176703b9de2bd7fbe60460c01b61087e565b61042b67c1f55699fe08f7e760c01b61087e565b60006104356106e0565b905061044b676888c77a8ab7d70360c01b61087e565b61045f67ce1c440fcc632c7e60c01b61087e565b61047367fb30c6ab4f5e6a7b60c01b61087e565b803410156104b6576040517f08c379a00000000000000000000000000000000000000000000000000000000081526004016104ad90610b0b565b60405180910390fd5b6104ca676f2fac426f8b7f9060c01b61087e565b6104de67883bf561f6c023b760c01b61087e565b33600160006101000a81548173ffffffffffffffffffffffffffffffffffffffff021916908373ffffffffffffffffffffffffffffffffffffffff16021790555061053367db1ee24c80e6b12460c01b61087e565b61054767c76b10dba413b6eb60c01b61087e565b7f000000000000000000000000000000000000000000000000000000000000000073ffffffffffffffffffffffffffffffffffffffff166108fc349081150290604051600060405180830381858888f193505050501580156105ad573d6000803e3d6000fd5b506105c267271c31fc142e3fbd60c01b61087e565b6105d667fd84355046e7d5e860c01b61087e565b600160009054906101000a900473ffffffffffffffffffffffffffffffffffffffff169250505090565b60005481565b7f000000000000000000000000000000000000000000000000000000000000000081565b7f000000000000000000000000000000000000000000000000000000000000000081565b7f000000000000000000000000000000000000000000000000000000000000000081565b7f000000000000000000000000000000000000000000000000000000000000000081565b7f000000000000000000000000000000000000000000000000000000000000000081565b600160009054906101000a900473ffffffffffffffffffffffffffffffffffffffff1681565b60006106f6674f45342a694eb2e160c01b61087e565b61070a67fb15c075eee9ad8160c01b61087e565b61071e6782a07038153d3d4860c01b61087e565b60007f00000000000000000000000000000000000000000000000000000000000000004361074c91906109f9565b90506107626737d014813564090f60c01b61087e565b61077667d7d522a8d5815ccb60c01b61087e565b7f00000000000000000000000000000000000000000000000000000000000000008110610802576107b167ba91c478d6a53d7b60c01b61087e565b6107c567d121f687626e6cb360c01b61087e565b6107d967bd635b26256a380160c01b61087e565b7f000000000000000000000000000000000000000000000000000000000000000091505061087b565b61081667ac832d94304c636360c01b61087e565b61082a67bc9b90197ca6114760c01b61087e565b61083e678cc6204da48056e860c01b61087e565b7f00000000000000000000000000000000000000000000000000000000000000008161086a9190610b2b565b60005461087791906109f9565b9150505b90565b50565b600073ffffffffffffffffffffffffffffffffffffffff82169050919050565b60006108ac82610881565b9050919050565b6108bc816108a1565b82525050565b60006020820190506108d760008301846108b3565b92915050565b6000819050919050565b6108f0816108dd565b82525050565b600060208201905061090b60008301846108e7565b92915050565b600061091c82610881565b9050919050565b61092c81610911565b82525050565b60006020820190506109476000830184610923565b92915050565b600082825260208201905092915050565b7f41756374696f6e2068617320616c726561647920636f6e636c75646564000000600082015250565b6000610994601d8361094d565b915061099f8261095e565b602082019050919050565b600060208201905081810360008301526109c381610987565b9050919050565b7f4e487b7100000000000000000000000000000000000000000000000000000000600052601160045260246000fd5b6000610a04826108dd565b9150610a0f836108dd565b9250828203905081811115610a2757610a266109ca565b5b92915050565b7f41756374696f6e20657870697265640000000000000000000000000000000000600082015250565b6000610a63600f8361094d565b9150610a6e82610a2d565b602082019050919050565b60006020820190508181036000830152610a9281610a56565b9050919050565b7f546865207765692076616c75652073656e74206973206e6f742061636365707460008201527f61626c6500000000000000000000000000000000000000000000000000000000602082015250565b6000610af560248361094d565b9150610b0082610a99565b604082019050919050565b60006020820190508181036000830152610b2481610ae8565b9050919050565b6000610b36826108dd565b9150610b41836108dd565b9250828202610b4f816108dd565b91508282048414831517610b6657610b656109ca565b5b509291505056fea26469706673582212207943b53faab99fedcd4a27285d85fcc785be66a71becd9d5b199e283a691dfa864736f6c63430008120033","opcodes":"PUSH2 0x120 PUSH1 0x40 MSTORE CALLVALUE DUP1 ISZERO PUSH3 0x12 JUMPI PUSH1 0x0 DUP1 REVERT JUMPDEST POP PUSH1 0x40 MLOAD PUSH3 0xEEE CODESIZE SUB DUP1 PUSH3 0xEEE DUP4 CODECOPY DUP2 DUP2 ADD PUSH1 0x40 MSTORE DUP2 ADD SWAP1 PUSH3 0x38 SWAP2 SWAP1 PUSH3 0x1C4 JUMP JUMPDEST PUSH3 0x54 PUSH8 0x67622D8EC5397052 PUSH1 0xC0 SHL PUSH3 0x181 PUSH1 0x20 SHL PUSH1 0x20 SHR JUMP JUMPDEST PUSH3 0x70 PUSH8 0xDE78EBE698A9F299 PUSH1 0xC0 SHL PUSH3 0x181 PUSH1 0x20 SHL PUSH1 0x20 SHR JUMP JUMPDEST CALLER PUSH20 0xFFFFFFFFFFFFFFFFFFFFFFFFFFFFFFFFFFFFFFFF AND PUSH1 0x80 DUP2 PUSH20 0xFFFFFFFFFFFFFFFFFFFFFFFFFFFFFFFFFFFFFFFF AND DUP2 MSTORE POP POP PUSH3 0xC0 PUSH8 0x327A71A263007ED8 PUSH1 0xC0 SHL PUSH3 0x181 PUSH1 0x20 SHL PUSH1 0x20 SHR JUMP JUMPDEST DUP3 PUSH1 0xA0 DUP2 DUP2 MSTORE POP POP PUSH3 0xE4 PUSH8 0x336AD703BBBDE74 PUSH1 0xC0 SHL PUSH3 0x181 PUSH1 0x20 SHL PUSH1 0x20 SHR JUMP JUMPDEST DUP2 PUSH1 0xC0 DUP2 DUP2 MSTORE POP POP PUSH3 0x108 PUSH8 0x8B845912D49E5BD4 PUSH1 0xC0 SHL PUSH3 0x181 PUSH1 0x20 SHL PUSH1 0x20 SHR JUMP JUMPDEST DUP1 PUSH1 0xE0 DUP2 DUP2 MSTORE POP POP PUSH3 0x12C PUSH8 0x3F120028C7B86595 PUSH1 0xC0 SHL PUSH3 0x181 PUSH1 0x20 SHL PUSH1 0x20 SHR JUMP JUMPDEST NUMBER PUSH2 0x100 DUP2 DUP2 MSTORE POP POP PUSH3 0x151 PUSH8 0x7506BF2AE79AFAB1 PUSH1 0xC0 SHL PUSH3 0x181 PUSH1 0x20 SHL PUSH1 0x20 SHR JUMP JUMPDEST PUSH1 0xE0 MLOAD PUSH1 0xC0 MLOAD PUSH3 0x163 SWAP2 SWAP1 PUSH3 0x24F JUMP JUMPDEST PUSH1 0xA0 MLOAD PUSH3 0x172 SWAP2 SWAP1 PUSH3 0x29A JUMP JUMPDEST PUSH1 0x0 DUP2 SWAP1 SSTORE POP POP POP POP PUSH3 0x2D5 JUMP JUMPDEST POP JUMP JUMPDEST PUSH1 0x0 DUP1 REVERT JUMPDEST PUSH1 0x0 DUP2 SWAP1 POP SWAP2 SWAP1 POP JUMP JUMPDEST PUSH3 0x19E DUP2 PUSH3 0x189 JUMP JUMPDEST DUP2 EQ PUSH3 0x1AA JUMPI PUSH1 0x0 DUP1 REVERT JUMPDEST POP JUMP JUMPDEST PUSH1 0x0 DUP2 MLOAD SWAP1 POP PUSH3 0x1BE DUP2 PUSH3 0x193 JUMP JUMPDEST SWAP3 SWAP2 POP POP JUMP JUMPDEST PUSH1 0x0 DUP1 PUSH1 0x0 PUSH1 0x60 DUP5 DUP7 SUB SLT ISZERO PUSH3 0x1E0 JUMPI PUSH3 0x1DF PUSH3 0x184 JUMP JUMPDEST JUMPDEST PUSH1 0x0 PUSH3 0x1F0 DUP7 DUP3 DUP8 ADD PUSH3 0x1AD JUMP JUMPDEST SWAP4 POP POP PUSH1 0x20 PUSH3 0x203 DUP7 DUP3 DUP8 ADD PUSH3 0x1AD JUMP JUMPDEST SWAP3 POP POP PUSH1 0x40 PUSH3 0x216 DUP7 DUP3 DUP8 ADD PUSH3 0x1AD JUMP JUMPDEST SWAP2 POP POP SWAP3 POP SWAP3 POP SWAP3 JUMP JUMPDEST PUSH32 0x4E487B7100000000000000000000000000000000000000000000000000000000 PUSH1 0x0 MSTORE PUSH1 0x11 PUSH1 0x4 MSTORE PUSH1 0x24 PUSH1 0x0 REVERT JUMPDEST PUSH1 0x0 PUSH3 0x25C DUP3 PUSH3 0x189 JUMP JUMPDEST SWAP2 POP PUSH3 0x269 DUP4 PUSH3 0x189 JUMP JUMPDEST SWAP3 POP DUP3 DUP3 MUL PUSH3 0x279 DUP2 PUSH3 0x189 JUMP JUMPDEST SWAP2 POP DUP3 DUP3 DIV DUP5 EQ DUP4 ISZERO OR PUSH3 0x293 JUMPI PUSH3 0x292 PUSH3 0x220 JUMP JUMPDEST JUMPDEST POP SWAP3 SWAP2 POP POP JUMP JUMPDEST PUSH1 0x0 PUSH3 0x2A7 DUP3 PUSH3 0x189 JUMP JUMPDEST SWAP2 POP PUSH3 0x2B4 DUP4 PUSH3 0x189 JUMP JUMPDEST SWAP3 POP DUP3 DUP3 ADD SWAP1 POP DUP1 DUP3 GT ISZERO PUSH3 0x2CF JUMPI PUSH3 0x2CE PUSH3 0x220 JUMP JUMPDEST JUMPDEST SWAP3 SWAP2 POP POP JUMP JUMPDEST PUSH1 0x80 MLOAD PUSH1 0xA0 MLOAD PUSH1 0xC0 MLOAD PUSH1 0xE0 MLOAD PUSH2 0x100 MLOAD PUSH2 0xBA3 PUSH3 0x34B PUSH1 0x0 CODECOPY PUSH1 0x0 DUP2 DUP2 PUSH2 0x324 ADD MSTORE DUP2 DUP2 PUSH2 0x62C ADD MSTORE PUSH2 0x722 ADD MSTORE PUSH1 0x0 DUP2 DUP2 PUSH2 0x674 ADD MSTORE PUSH2 0x840 ADD MSTORE PUSH1 0x0 DUP2 DUP2 PUSH2 0x38E ADD MSTORE DUP2 DUP2 PUSH2 0x608 ADD MSTORE PUSH2 0x778 ADD MSTORE PUSH1 0x0 DUP2 DUP2 PUSH2 0x698 ADD MSTORE PUSH2 0x7DB ADD MSTORE PUSH1 0x0 DUP2 DUP2 PUSH2 0x549 ADD MSTORE PUSH2 0x650 ADD MSTORE PUSH2 0xBA3 PUSH1 0x0 RETURN INVALID PUSH1 0x80 PUSH1 0x40 MSTORE PUSH1 0x4 CALLDATASIZE LT PUSH2 0x86 JUMPI PUSH1 0x0 CALLDATALOAD PUSH1 0xE0 SHR DUP1 PUSH4 0x8DA5CB5B GT PUSH2 0x59 JUMPI DUP1 PUSH4 0x8DA5CB5B EQ PUSH2 0x12A JUMPI DUP1 PUSH4 0xD3642A88 EQ PUSH2 0x155 JUMPI DUP1 PUSH4 0xDB2E1EED EQ PUSH2 0x180 JUMPI DUP1 PUSH4 0xDFBF53AE EQ PUSH2 0x1AB JUMPI DUP1 PUSH4 0xEB91D37E EQ PUSH2 0x1D6 JUMPI PUSH2 0x86 JUMP JUMPDEST DUP1 PUSH4 0x1998AEEF EQ PUSH2 0x8B JUMPI DUP1 PUSH4 0x1D0806AE EQ PUSH2 0xA9 JUMPI DUP1 PUSH4 0x3103EA62 EQ PUSH2 0xD4 JUMPI DUP1 PUSH4 0x48CD4CB1 EQ PUSH2 0xFF JUMPI JUMPDEST PUSH1 0x0 DUP1 REVERT JUMPDEST PUSH2 0x93 PUSH2 0x201 JUMP JUMPDEST PUSH1 0x40 MLOAD PUSH2 0xA0 SWAP2 SWAP1 PUSH2 0x8C2 JUMP JUMPDEST PUSH1 0x40 MLOAD DUP1 SWAP2 SUB SWAP1 RETURN JUMPDEST CALLVALUE DUP1 ISZERO PUSH2 0xB5 JUMPI PUSH1 0x0 DUP1 REVERT JUMPDEST POP PUSH2 0xBE PUSH2 0x600 JUMP JUMPDEST PUSH1 0x40 MLOAD PUSH2 0xCB SWAP2 SWAP1 PUSH2 0x8F6 JUMP JUMPDEST PUSH1 0x40 MLOAD DUP1 SWAP2 SUB SWAP1 RETURN JUMPDEST CALLVALUE DUP1 ISZERO PUSH2 0xE0 JUMPI PUSH1 0x0 DUP1 REVERT JUMPDEST POP PUSH2 0xE9 PUSH2 0x606 JUMP JUMPDEST PUSH1 0x40 MLOAD PUSH2 0xF6 SWAP2 SWAP1 PUSH2 0x8F6 JUMP JUMPDEST PUSH1 0x40 MLOAD DUP1 SWAP2 SUB SWAP1 RETURN JUMPDEST CALLVALUE DUP1 ISZERO PUSH2 0x10B JUMPI PUSH1 0x0 DUP1 REVERT JUMPDEST POP PUSH2 0x114 PUSH2 0x62A JUMP JUMPDEST PUSH1 0x40 MLOAD PUSH2 0x121 SWAP2 SWAP1 PUSH2 0x8F6 JUMP JUMPDEST PUSH1 0x40 MLOAD DUP1 SWAP2 SUB SWAP1 RETURN JUMPDEST CALLVALUE DUP1 ISZERO PUSH2 0x136 JUMPI PUSH1 0x0 DUP1 REVERT JUMPDEST POP PUSH2 0x13F PUSH2 0x64E JUMP JUMPDEST PUSH1 0x40 MLOAD PUSH2 0x14C SWAP2 SWAP1 PUSH2 0x932 JUMP JUMPDEST PUSH1 0x40 MLOAD DUP1 SWAP2 SUB SWAP1 RETURN JUMPDEST CALLVALUE DUP1 ISZERO PUSH2 0x161 JUMPI PUSH1 0x0 DUP1 REVERT JUMPDEST POP PUSH2 0x16A PUSH2 0x672 JUMP JUMPDEST PUSH1 0x40 MLOAD PUSH2 0x177 SWAP2 SWAP1 PUSH2 0x8F6 JUMP JUMPDEST PUSH1 0x40 MLOAD DUP1 SWAP2 SUB SWAP1 RETURN JUMPDEST CALLVALUE DUP1 ISZERO PUSH2 0x18C JUMPI PUSH1 0x0 DUP1 REVERT JUMPDEST POP PUSH2 0x195 PUSH2 0x696 JUMP JUMPDEST PUSH1 0x40 MLOAD PUSH2 0x1A2 SWAP2 SWAP1 PUSH2 0x8F6 JUMP JUMPDEST PUSH1 0x40 MLOAD DUP1 SWAP2 SUB SWAP1 RETURN JUMPDEST CALLVALUE DUP1 ISZERO PUSH2 0x1B7 JUMPI PUSH1 0x0 DUP1 REVERT JUMPDEST POP PUSH2 0x1C0 PUSH2 0x6BA JUMP JUMPDEST PUSH1 0x40 MLOAD PUSH2 0x1CD SWAP2 SWAP1 PUSH2 0x8C2 JUMP JUMPDEST PUSH1 0x40 MLOAD DUP1 SWAP2 SUB SWAP1 RETURN JUMPDEST CALLVALUE DUP1 ISZERO PUSH2 0x1E2 JUMPI PUSH1 0x0 DUP1 REVERT JUMPDEST POP PUSH2 0x1EB PUSH2 0x6E0 JUMP JUMPDEST PUSH1 0x40 MLOAD PUSH2 0x1F8 SWAP2 SWAP1 PUSH2 0x8F6 JUMP JUMPDEST PUSH1 0x40 MLOAD DUP1 SWAP2 SUB SWAP1 RETURN JUMPDEST PUSH1 0x0 PUSH2 0x217 PUSH8 0xD1BA168DF17BD840 PUSH1 0xC0 SHL PUSH2 0x87E JUMP JUMPDEST PUSH2 0x22B PUSH8 0xF52235B7B94CF2EF PUSH1 0xC0 SHL PUSH2 0x87E JUMP JUMPDEST PUSH2 0x23F PUSH8 0x9000A3A29BAA7309 PUSH1 0xC0 SHL PUSH2 0x87E JUMP JUMPDEST PUSH2 0x253 PUSH8 0x5A304F1B6629E762 PUSH1 0xC0 SHL PUSH2 0x87E JUMP JUMPDEST PUSH1 0x0 PUSH20 0xFFFFFFFFFFFFFFFFFFFFFFFFFFFFFFFFFFFFFFFF AND PUSH1 0x1 PUSH1 0x0 SWAP1 SLOAD SWAP1 PUSH2 0x100 EXP SWAP1 DIV PUSH20 0xFFFFFFFFFFFFFFFFFFFFFFFFFFFFFFFFFFFFFFFF AND PUSH20 0xFFFFFFFFFFFFFFFFFFFFFFFFFFFFFFFFFFFFFFFF AND EQ PUSH2 0x2E4 JUMPI PUSH1 0x40 MLOAD PUSH32 0x8C379A000000000000000000000000000000000000000000000000000000000 DUP2 MSTORE PUSH1 0x4 ADD PUSH2 0x2DB SWAP1 PUSH2 0x9AA JUMP JUMPDEST PUSH1 0x40 MLOAD DUP1 SWAP2 SUB SWAP1 REVERT JUMPDEST PUSH2 0x2F8 PUSH8 0x9EBEBAA7D23E587B PUSH1 0xC0 SHL PUSH2 0x87E JUMP JUMPDEST PUSH2 0x30C PUSH8 0xDCFA30BE90F72589 PUSH1 0xC0 SHL PUSH2 0x87E JUMP JUMPDEST PUSH2 0x320 PUSH8 0x5A03DFC193E1BC87 PUSH1 0xC0 SHL PUSH2 0x87E JUMP JUMPDEST PUSH1 0x0 PUSH32 0x0 NUMBER PUSH2 0x34E SWAP2 SWAP1 PUSH2 0x9F9 JUMP JUMPDEST SWAP1 POP PUSH2 0x364 PUSH8 0x5055A7D6FE81EEB1 PUSH1 0xC0 SHL PUSH2 0x87E JUMP JUMPDEST PUSH2 0x378 PUSH8 0x4307FEDE985151FC PUSH1 0xC0 SHL PUSH2 0x87E JUMP JUMPDEST PUSH2 0x38C PUSH8 0x7953D02F03DE68F9 PUSH1 0xC0 SHL PUSH2 0x87E JUMP JUMPDEST PUSH32 0x0 DUP2 GT ISZERO PUSH2 0x3EF JUMPI PUSH1 0x40 MLOAD PUSH32 0x8C379A000000000000000000000000000000000000000000000000000000000 DUP2 MSTORE PUSH1 0x4 ADD PUSH2 0x3E6 SWAP1 PUSH2 0xA79 JUMP JUMPDEST PUSH1 0x40 MLOAD DUP1 SWAP2 SUB SWAP1 REVERT JUMPDEST PUSH2 0x403 PUSH8 0xF94E732280957BA1 PUSH1 0xC0 SHL PUSH2 0x87E JUMP JUMPDEST PUSH2 0x417 PUSH8 0x3B9DE2BD7FBE604 PUSH1 0xC0 SHL PUSH2 0x87E JUMP JUMPDEST PUSH2 0x42B PUSH8 0xC1F55699FE08F7E7 PUSH1 0xC0 SHL PUSH2 0x87E JUMP JUMPDEST PUSH1 0x0 PUSH2 0x435 PUSH2 0x6E0 JUMP JUMPDEST SWAP1 POP PUSH2 0x44B PUSH8 0x6888C77A8AB7D703 PUSH1 0xC0 SHL PUSH2 0x87E JUMP JUMPDEST PUSH2 0x45F PUSH8 0xCE1C440FCC632C7E PUSH1 0xC0 SHL PUSH2 0x87E JUMP JUMPDEST PUSH2 0x473 PUSH8 0xFB30C6AB4F5E6A7B PUSH1 0xC0 SHL PUSH2 0x87E JUMP JUMPDEST DUP1 CALLVALUE LT ISZERO PUSH2 0x4B6 JUMPI PUSH1 0x40 MLOAD PUSH32 0x8C379A000000000000000000000000000000000000000000000000000000000 DUP2 MSTORE PUSH1 0x4 ADD PUSH2 0x4AD SWAP1 PUSH2 0xB0B JUMP JUMPDEST PUSH1 0x40 MLOAD DUP1 SWAP2 SUB SWAP1 REVERT JUMPDEST PUSH2 0x4CA PUSH8 0x6F2FAC426F8B7F90 PUSH1 0xC0 SHL PUSH2 0x87E JUMP JUMPDEST PUSH2 0x4DE PUSH8 0x883BF561F6C023B7 PUSH1 0xC0 SHL PUSH2 0x87E JUMP JUMPDEST CALLER PUSH1 0x1 PUSH1 0x0 PUSH2 0x100 EXP DUP2 SLOAD DUP2 PUSH20 0xFFFFFFFFFFFFFFFFFFFFFFFFFFFFFFFFFFFFFFFF MUL NOT AND SWAP1 DUP4 PUSH20 0xFFFFFFFFFFFFFFFFFFFFFFFFFFFFFFFFFFFFFFFF AND MUL OR SWAP1 SSTORE POP PUSH2 0x533 PUSH8 0xDB1EE24C80E6B124 PUSH1 0xC0 SHL PUSH2 0x87E JUMP JUMPDEST PUSH2 0x547 PUSH8 0xC76B10DBA413B6EB PUSH1 0xC0 SHL PUSH2 0x87E JUMP JUMPDEST PUSH32 0x0 PUSH20 0xFFFFFFFFFFFFFFFFFFFFFFFFFFFFFFFFFFFFFFFF AND PUSH2 0x8FC CALLVALUE SWAP1 DUP2 ISZERO MUL SWAP1 PUSH1 0x40 MLOAD PUSH1 0x0 PUSH1 0x40 MLOAD DUP1 DUP4 SUB DUP2 DUP6 DUP9 DUP9 CALL SWAP4 POP POP POP POP ISZERO DUP1 ISZERO PUSH2 0x5AD JUMPI RETURNDATASIZE PUSH1 0x0 DUP1 RETURNDATACOPY RETURNDATASIZE PUSH1 0x0 REVERT JUMPDEST POP PUSH2 0x5C2 PUSH8 0x271C31FC142E3FBD PUSH1 0xC0 SHL PUSH2 0x87E JUMP JUMPDEST PUSH2 0x5D6 PUSH8 0xFD84355046E7D5E8 PUSH1 0xC0 SHL PUSH2 0x87E JUMP JUMPDEST PUSH1 0x1 PUSH1 0x0 SWAP1 SLOAD SWAP1 PUSH2 0x100 EXP SWAP1 DIV PUSH20 0xFFFFFFFFFFFFFFFFFFFFFFFFFFFFFFFFFFFFFFFF AND SWAP3 POP POP POP SWAP1 JUMP JUMPDEST PUSH1 0x0 SLOAD DUP2 JUMP JUMPDEST PUSH32 0x0 DUP2 JUMP JUMPDEST PUSH32 0x0 DUP2 JUMP JUMPDEST PUSH32 0x0 DUP2 JUMP JUMPDEST PUSH32 0x0 DUP2 JUMP JUMPDEST PUSH32 0x0 DUP2 JUMP JUMPDEST PUSH1 0x1 PUSH1 0x0 SWAP1 SLOAD SWAP1 PUSH2 0x100 EXP SWAP1 DIV PUSH20 0xFFFFFFFFFFFFFFFFFFFFFFFFFFFFFFFFFFFFFFFF AND DUP2 JUMP JUMPDEST PUSH1 0x0 PUSH2 0x6F6 PUSH8 0x4F45342A694EB2E1 PUSH1 0xC0 SHL PUSH2 0x87E JUMP JUMPDEST PUSH2 0x70A PUSH8 0xFB15C075EEE9AD81 PUSH1 0xC0 SHL PUSH2 0x87E JUMP JUMPDEST PUSH2 0x71E PUSH8 0x82A07038153D3D48 PUSH1 0xC0 SHL PUSH2 0x87E JUMP JUMPDEST PUSH1 0x0 PUSH32 0x0 NUMBER PUSH2 0x74C SWAP2 SWAP1 PUSH2 0x9F9 JUMP JUMPDEST SWAP1 POP PUSH2 0x762 PUSH8 0x37D014813564090F PUSH1 0xC0 SHL PUSH2 0x87E JUMP JUMPDEST PUSH2 0x776 PUSH8 0xD7D522A8D5815CCB PUSH1 0xC0 SHL PUSH2 0x87E JUMP JUMPDEST PUSH32 0x0 DUP2 LT PUSH2 0x802 JUMPI PUSH2 0x7B1 PUSH8 0xBA91C478D6A53D7B PUSH1 0xC0 SHL PUSH2 0x87E JUMP JUMPDEST PUSH2 0x7C5 PUSH8 0xD121F687626E6CB3 PUSH1 0xC0 SHL PUSH2 0x87E JUMP JUMPDEST PUSH2 0x7D9 PUSH8 0xBD635B26256A3801 PUSH1 0xC0 SHL PUSH2 0x87E JUMP JUMPDEST PUSH32 0x0 SWAP2 POP POP PUSH2 0x87B JUMP JUMPDEST PUSH2 0x816 PUSH8 0xAC832D94304C6363 PUSH1 0xC0 SHL PUSH2 0x87E JUMP JUMPDEST PUSH2 0x82A PUSH8 0xBC9B90197CA61147 PUSH1 0xC0 SHL PUSH2 0x87E JUMP JUMPDEST PUSH2 0x83E PUSH8 0x8CC6204DA48056E8 PUSH1 0xC0 SHL PUSH2 0x87E JUMP JUMPDEST PUSH32 0x0 DUP2 PUSH2 0x86A SWAP2 SWAP1 PUSH2 0xB2B JUMP JUMPDEST PUSH1 0x0 SLOAD PUSH2 0x877 SWAP2 SWAP1 PUSH2 0x9F9 JUMP JUMPDEST SWAP2 POP POP JUMPDEST SWAP1 JUMP JUMPDEST POP JUMP JUMPDEST PUSH1 0x0 PUSH20 0xFFFFFFFFFFFFFFFFFFFFFFFFFFFFFFFFFFFFFFFF DUP3 AND SWAP1 POP SWAP2 SWAP1 POP JUMP JUMPDEST PUSH1 0x0 PUSH2 0x8AC DUP3 PUSH2 0x881 JUMP JUMPDEST SWAP1 POP SWAP2 SWAP1 POP JUMP JUMPDEST PUSH2 0x8BC DUP2 PUSH2 0x8A1 JUMP JUMPDEST DUP3 MSTORE POP POP JUMP JUMPDEST PUSH1 0x0 PUSH1 0x20 DUP3 ADD SWAP1 POP PUSH2 0x8D7 PUSH1 0x0 DUP4 ADD DUP5 PUSH2 0x8B3 JUMP JUMPDEST SWAP3 SWAP2 POP POP JUMP JUMPDEST PUSH1 0x0 DUP2 SWAP1 POP SWAP2 SWAP1 POP JUMP JUMPDEST PUSH2 0x8F0 DUP2 PUSH2 0x8DD JUMP JUMPDEST DUP3 MSTORE POP POP JUMP JUMPDEST PUSH1 0x0 PUSH1 0x20 DUP3 ADD SWAP1 POP PUSH2 0x90B PUSH1 0x0 DUP4 ADD DUP5 PUSH2 0x8E7 JUMP JUMPDEST SWAP3 SWAP2 POP POP JUMP JUMPDEST PUSH1 0x0 PUSH2 0x91C DUP3 PUSH2 0x881 JUMP JUMPDEST SWAP1 POP SWAP2 SWAP1 POP JUMP JUMPDEST PUSH2 0x92C DUP2 PUSH2 0x911 JUMP JUMPDEST DUP3 MSTORE POP POP JUMP JUMPDEST PUSH1 0x0 PUSH1 0x20 DUP3 ADD SWAP1 POP PUSH2 0x947 PUSH1 0x0 DUP4 ADD DUP5 PUSH2 0x923 JUMP JUMPDEST SWAP3 SWAP2 POP POP JUMP JUMPDEST PUSH1 0x0 DUP3 DUP3 MSTORE PUSH1 0x20 DUP3 ADD SWAP1 POP SWAP3 SWAP2 POP POP JUMP JUMPDEST PUSH32 0x41756374696F6E2068617320616C726561647920636F6E636C75646564000000 PUSH1 0x0 DUP3 ADD MSTORE POP JUMP JUMPDEST PUSH1 0x0 PUSH2 0x994 PUSH1 0x1D DUP4 PUSH2 0x94D JUMP JUMPDEST SWAP2 POP PUSH2 0x99F DUP3 PUSH2 0x95E JUMP JUMPDEST PUSH1 0x20 DUP3 ADD SWAP1 POP SWAP2 SWAP1 POP JUMP JUMPDEST PUSH1 0x0 PUSH1 0x20 DUP3 ADD SWAP1 POP DUP2 DUP2 SUB PUSH1 0x0 DUP4 ADD MSTORE PUSH2 0x9C3 DUP2 PUSH2 0x987 JUMP JUMPDEST SWAP1 POP SWAP2 SWAP1 POP JUMP JUMPDEST PUSH32 0x4E487B7100000000000000000000000000000000000000000000000000000000 PUSH1 0x0 MSTORE PUSH1 0x11 PUSH1 0x4 MSTORE PUSH1 0x24 PUSH1 0x0 REVERT JUMPDEST PUSH1 0x0 PUSH2 0xA04 DUP3 PUSH2 0x8DD JUMP JUMPDEST SWAP2 POP PUSH2 0xA0F DUP4 PUSH2 0x8DD JUMP JUMPDEST SWAP3 POP DUP3 DUP3 SUB SWAP1 POP DUP2 DUP2 GT ISZERO PUSH2 0xA27 JUMPI PUSH2 0xA26 PUSH2 0x9CA JUMP JUMPDEST JUMPDEST SWAP3 SWAP2 POP POP JUMP JUMPDEST PUSH32 0x41756374696F6E20657870697265640000000000000000000000000000000000 PUSH1 0x0 DUP3 ADD MSTORE POP JUMP JUMPDEST PUSH1 0x0 PUSH2 0xA63 PUSH1 0xF DUP4 PUSH2 0x94D JUMP JUMPDEST SWAP2 POP PUSH2 0xA6E DUP3 PUSH2 0xA2D JUMP JUMPDEST PUSH1 0x20 DUP3 ADD SWAP1 POP SWAP2 SWAP1 POP JUMP JUMPDEST PUSH1 0x0 PUSH1 0x20 DUP3 ADD SWAP1 POP DUP2 DUP2 SUB PUSH1 0x0 DUP4 ADD MSTORE PUSH2 0xA92 DUP2 PUSH2 0xA56 JUMP JUMPDEST SWAP1 POP SWAP2 SWAP1 POP JUMP JUMPDEST PUSH32 0x546865207765692076616C75652073656E74206973206E6F7420616363657074 PUSH1 0x0 DUP3 ADD MSTORE PUSH32 0x61626C6500000000000000000000000000000000000000000000000000000000 PUSH1 0x20 DUP3 ADD MSTORE POP JUMP JUMPDEST PUSH1 0x0 PUSH2 0xAF5 PUSH1 0x24 DUP4 PUSH2 0x94D JUMP JUMPDEST SWAP2 POP PUSH2 0xB00 DUP3 PUSH2 0xA99 JUMP JUMPDEST PUSH1 0x40 DUP3 ADD SWAP1 POP SWAP2 SWAP1 POP JUMP JUMPDEST PUSH1 0x0 PUSH1 0x20 DUP3 ADD SWAP1 POP DUP2 DUP2 SUB PUSH1 0x0 DUP4 ADD MSTORE PUSH2 0xB24 DUP2 PUSH2 0xAE8 JUMP JUMPDEST SWAP1 POP SWAP2 SWAP1 POP JUMP JUMPDEST PUSH1 0x0 PUSH2 0xB36 DUP3 PUSH2 0x8DD JUMP JUMPDEST SWAP2 POP PUSH2 0xB41 DUP4 PUSH2 0x8DD JUMP JUMPDEST SWAP3 POP DUP3 DUP3 MUL PUSH2 0xB4F DUP2 PUSH2 0x8DD JUMP JUMPDEST SWAP2 POP DUP3 DUP3 DIV DUP5 EQ DUP4 ISZERO OR PUSH2 0xB66 JUMPI PUSH2 0xB65 PUSH2 0x9CA JUMP JUMPDEST JUMPDEST POP SWAP3 SWAP2 POP POP JUMP INVALID LOG2 PUSH5 0x6970667358 0x22 SLT KECCAK256 PUSH26 0x43B53FAAB99FEDCD4A27285D85FCC785BE66A71BECD9D5B199E2 DUP4 0xA6 SWAP2 0xDF 0xA8 PUSH5 0x736F6C6343 STOP ADDMOD SLT STOP CALLER "},"methodIdentifiers":{"bid()":"1998aeef","getCurrentPrice()":"eb91d37e","initialPrice()":"1d0806ae","numBlocksAuctionOpen()":"3103ea62","offerPriceDecrement()":"d3642a88","owner()":"8da5cb5b","reservePrice()":"db2e1eed","startBlock()":"48cd4cb1","winner()":"dfbf53ae"}}}}}