{
  "_format": "hh-sol-artifact-1",
  "contractName": "BasicDutchAuction",
  "sourceName": "contracts/BasicDutchAuction.sol",
  "abi": [
    {
      "inputs": [
        {
          "internalType": "uint256",
          "name": "_reservePrice",
          "type": "uint256"
        },
        {
          "internalType": "uint256",
          "name": "_numBlocksAuctionOpen",
          "type": "uint256"
        },
        {
          "internalType": "uint256",
          "name": "_offerPriceDecrement",
          "type": "uint256"
        }
      ],
      "stateMutability": "nonpayable",
      "type": "constructor"
    },
    {
      "inputs": [],
      "name": "bid",
      "outputs": [
        {
          "internalType": "address",
          "name": "",
          "type": "address"
        }
      ],
      "stateMutability": "payable",
      "type": "function"
    },
    {
      "inputs": [],
      "name": "getCurrentPrice",
      "outputs": [
        {
          "internalType": "uint256",
          "name": "",
          "type": "uint256"
        }
      ],
      "stateMutability": "view",
      "type": "function"
    },
    {
      "inputs": [],
      "name": "initialPrice",
      "outputs": [
        {
          "internalType": "uint256",
          "name": "",
          "type": "uint256"
        }
      ],
      "stateMutability": "view",
      "type": "function"
    },
    {
      "inputs": [],
      "name": "numBlocksAuctionOpen",
      "outputs": [
        {
          "internalType": "uint256",
          "name": "",
          "type": "uint256"
        }
      ],
      "stateMutability": "view",
      "type": "function"
    },
    {
      "inputs": [],
      "name": "offerPriceDecrement",
      "outputs": [
        {
          "internalType": "uint256",
          "name": "",
          "type": "uint256"
        }
      ],
      "stateMutability": "view",
      "type": "function"
    },
    {
      "inputs": [],
      "name": "owner",
      "outputs": [
        {
          "internalType": "address payable",
          "name": "",
          "type": "address"
        }
      ],
      "stateMutability": "view",
      "type": "function"
    },
    {
      "inputs": [],
      "name": "reservePrice",
      "outputs": [
        {
          "internalType": "uint256",
          "name": "",
          "type": "uint256"
        }
      ],
      "stateMutability": "view",
      "type": "function"
    },
    {
      "inputs": [],
      "name": "startBlock",
      "outputs": [
        {
          "internalType": "uint256",
          "name": "",
          "type": "uint256"
        }
      ],
      "stateMutability": "view",
      "type": "function"
    },
    {
      "inputs": [],
      "name": "winner",
      "outputs": [
        {
          "internalType": "address",
          "name": "",
          "type": "address"
        }
      ],
      "stateMutability": "view",
      "type": "function"
    }
  ],
  "bytecode": "0x6101206040523480156200001257600080fd5b5060405162000eee38038062000eee8339818101604052810190620000389190620001c4565b620000546767622d8ec539705260c01b6200018160201b60201c565b6200007067de78ebe698a9f29960c01b6200018160201b60201c565b3373ffffffffffffffffffffffffffffffffffffffff1660808173ffffffffffffffffffffffffffffffffffffffff1681525050620000c067327a71a263007ed860c01b6200018160201b60201c565b8260a08181525050620000e4670336ad703bbbde7460c01b6200018160201b60201c565b8160c0818152505062000108678b845912d49e5bd460c01b6200018160201b60201c565b8060e081815250506200012c673f120028c7b8659560c01b6200018160201b60201c565b43610100818152505062000151677506bf2ae79afab160c01b6200018160201b60201c565b60e05160c0516200016391906200024f565b60a0516200017291906200029a565b600081905550505050620002d5565b50565b600080fd5b6000819050919050565b6200019e8162000189565b8114620001aa57600080fd5b50565b600081519050620001be8162000193565b92915050565b600080600060608486031215620001e057620001df62000184565b5b6000620001f086828701620001ad565b93505060206200020386828701620001ad565b92505060406200021686828701620001ad565b9150509250925092565b7f4e487b7100000000000000000000000000000000000000000000000000000000600052601160045260246000fd5b60006200025c8262000189565b9150620002698362000189565b9250828202620002798162000189565b9150828204841483151762000293576200029262000220565b5b5092915050565b6000620002a78262000189565b9150620002b48362000189565b9250828201905080821115620002cf57620002ce62000220565b5b92915050565b60805160a05160c05160e05161010051610ba36200034b600039600081816103240152818161062c0152610722015260008181610674015261084001526000818161038e01528181610608015261077801526000818161069801526107db01526000818161054901526106500152610ba36000f3fe6080604052600436106100865760003560e01c80638da5cb5b116100595780638da5cb5b1461012a578063d3642a8814610155578063db2e1eed14610180578063dfbf53ae146101ab578063eb91d37e146101d657610086565b80631998aeef1461008b5780631d0806ae146100a95780633103ea62146100d457806348cd4cb1146100ff575b600080fd5b610093610201565b6040516100a091906108c2565b60405180910390f35b3480156100b557600080fd5b506100be610600565b6040516100cb91906108f6565b60405180910390f35b3480156100e057600080fd5b506100e9610606565b6040516100f691906108f6565b60405180910390f35b34801561010b57600080fd5b5061011461062a565b60405161012191906108f6565b60405180910390f35b34801561013657600080fd5b5061013f61064e565b60405161014c9190610932565b60405180910390f35b34801561016157600080fd5b5061016a610672565b60405161017791906108f6565b60405180910390f35b34801561018c57600080fd5b50610195610696565b6040516101a291906108f6565b60405180910390f35b3480156101b757600080fd5b506101c06106ba565b6040516101cd91906108c2565b60405180910390f35b3480156101e257600080fd5b506101eb6106e0565b6040516101f891906108f6565b60405180910390f35b600061021767d1ba168df17bd84060c01b61087e565b61022b67f52235b7b94cf2ef60c01b61087e565b61023f679000a3a29baa730960c01b61087e565b610253675a304f1b6629e76260c01b61087e565b600073ffffffffffffffffffffffffffffffffffffffff16600160009054906101000a900473ffffffffffffffffffffffffffffffffffffffff1673ffffffffffffffffffffffffffffffffffffffff16146102e4576040517f08c379a00000000000000000000000000000000000000000000000000000000081526004016102db906109aa565b60405180910390fd5b6102f8679ebebaa7d23e587b60c01b61087e565b61030c67dcfa30be90f7258960c01b61087e565b610320675a03dfc193e1bc8760c01b61087e565b60007f00000000000000000000000000000000000000000000000000000000000000004361034e91906109f9565b9050610364675055a7d6fe81eeb160c01b61087e565b610378674307fede985151fc60c01b61087e565b61038c677953d02f03de68f960c01b61087e565b7f00000000000000000000000000000000000000000000000000000000000000008111156103ef576040517f08c379a00000000000000000000000000000000000000000000000000000000081526004016103e690610a79565b60405180910390fd5b61040367f94e732280957ba160c01b61087e565b6104176703b9de2bd7fbe60460c01b61087e565b61042b67c1f55699fe08f7e760c01b61087e565b60006104356106e0565b905061044b676888c77a8ab7d70360c01b61087e565b61045f67ce1c440fcc632c7e60c01b61087e565b61047367fb30c6ab4f5e6a7b60c01b61087e565b803410156104b6576040517f08c379a00000000000000000000000000000000000000000000000000000000081526004016104ad90610b0b565b60405180910390fd5b6104ca676f2fac426f8b7f9060c01b61087e565b6104de67883bf561f6c023b760c01b61087e565b33600160006101000a81548173ffffffffffffffffffffffffffffffffffffffff021916908373ffffffffffffffffffffffffffffffffffffffff16021790555061053367db1ee24c80e6b12460c01b61087e565b61054767c76b10dba413b6eb60c01b61087e565b7f000000000000000000000000000000000000000000000000000000000000000073ffffffffffffffffffffffffffffffffffffffff166108fc349081150290604051600060405180830381858888f193505050501580156105ad573d6000803e3d6000fd5b506105c267271c31fc142e3fbd60c01b61087e565b6105d667fd84355046e7d5e860c01b61087e565b600160009054906101000a900473ffffffffffffffffffffffffffffffffffffffff169250505090565b60005481565b7f000000000000000000000000000000000000000000000000000000000000000081565b7f000000000000000000000000000000000000000000000000000000000000000081565b7f000000000000000000000000000000000000000000000000000000000000000081565b7f000000000000000000000000000000000000000000000000000000000000000081565b7f000000000000000000000000000000000000000000000000000000000000000081565b600160009054906101000a900473ffffffffffffffffffffffffffffffffffffffff1681565b60006106f6674f45342a694eb2e160c01b61087e565b61070a67fb15c075eee9ad8160c01b61087e565b61071e6782a07038153d3d4860c01b61087e565b60007f00000000000000000000000000000000000000000000000000000000000000004361074c91906109f9565b90506107626737d014813564090f60c01b61087e565b61077667d7d522a8d5815ccb60c01b61087e565b7f00000000000000000000000000000000000000000000000000000000000000008110610802576107b167ba91c478d6a53d7b60c01b61087e565b6107c567d121f687626e6cb360c01b61087e565b6107d967bd635b26256a380160c01b61087e565b7f000000000000000000000000000000000000000000000000000000000000000091505061087b565b61081667ac832d94304c636360c01b61087e565b61082a67bc9b90197ca6114760c01b61087e565b61083e678cc6204da48056e860c01b61087e565b7f00000000000000000000000000000000000000000000000000000000000000008161086a9190610b2b565b60005461087791906109f9565b9150505b90565b50565b600073ffffffffffffffffffffffffffffffffffffffff82169050919050565b60006108ac82610881565b9050919050565b6108bc816108a1565b82525050565b60006020820190506108d760008301846108b3565b92915050565b6000819050919050565b6108f0816108dd565b82525050565b600060208201905061090b60008301846108e7565b92915050565b600061091c82610881565b9050919050565b61092c81610911565b82525050565b60006020820190506109476000830184610923565b92915050565b600082825260208201905092915050565b7f41756374696f6e2068617320616c726561647920636f6e636c75646564000000600082015250565b6000610994601d8361094d565b915061099f8261095e565b602082019050919050565b600060208201905081810360008301526109c381610987565b9050919050565b7f4e487b7100000000000000000000000000000000000000000000000000000000600052601160045260246000fd5b6000610a04826108dd565b9150610a0f836108dd565b9250828203905081811115610a2757610a266109ca565b5b92915050565b7f41756374696f6e20657870697265640000000000000000000000000000000000600082015250565b6000610a63600f8361094d565b9150610a6e82610a2d565b602082019050919050565b60006020820190508181036000830152610a9281610a56565b9050919050565b7f546865207765692076616c75652073656e74206973206e6f742061636365707460008201527f61626c6500000000000000000000000000000000000000000000000000000000602082015250565b6000610af560248361094d565b9150610b0082610a99565b604082019050919050565b60006020820190508181036000830152610b2481610ae8565b9050919050565b6000610b36826108dd565b9150610b41836108dd565b9250828202610b4f816108dd565b91508282048414831517610b6657610b656109ca565b5b509291505056fea26469706673582212207943b53faab99fedcd4a27285d85fcc785be66a71becd9d5b199e283a691dfa864736f6c63430008120033",
  "linkReferences": {},
  "deployedLinkReferences": {}
}